:100000000000042059AF020081AF020083AF02005C
:1000100085AF020087AF020089AF02000000000038
:10002000000000000000000000000000A5690200C0
:100030008DAF020000000000C569020091AF020010
:1000400061DA020093AF0200DD820200657C0300EA
:1000500093AF020093AF0200FD72020093AF020063
:1000600093AF020093AF020093AF020081760200CB
:1000700093AF020069DC020093AF020093AF02006D
:10008000558002000566020093AF020093AF0200A4
:1000900093AF020093AF020093AF020093AF020050
:1000A00093AF020093AF020093AF020093AF020040
:1000B00093AF020093AF02000000000000000000B8
:1000C00093AF020093AF020093AF0200757C030070
:1000D0009176020093AF0200D52B000051920200EE
:1000E00093AF020093AF020093AF02000000000044
:1000F0000000000093AF020000000000857C0300B8
:1001000000000000000000000000000000000000EF
:1001100000000000000000000000000000000000DF
:1001200000000000000000000000000000000000CF
:1001300000000000000000000000000000000000BF
:1001400000000000000000000000000000000000AF
:10015000000000000000000000000000000000009F
:10016000000000000000000000000000000000008F
:10017000000000000000000000000000000000007F
:10018000000000000000000000000000000000006F
:10019000000000000000000000000000000000005F
:1001A000000000000000000000000000000000004F
:1001B000000000000000000000000000000000003F
:1001C000000000000000000000000000000000002F
:1001D000000000000000000000000000000000001F
:1001E000000000000000000000000000000000000F
:1001F00000000000000000000000000000000000FF
:10020000A4D6030002000000853700008D3A0000EC
:10021000753C000011380000000000002D33000084
:100220003536000000000000000000000000000063
:1002300000000000000000000000000000000000BE
:1002400000000000000000000000000000000000AE
:10025000000000000000000000000000000000009E
:10026000000000000000000000000000000000008E
:102000000348044B834202D0034B03B11847704787
:102010002C0900202C09002000000000054806497A
:102020000B1AD90F01EBA301491002D0034B03B1E6
:10203000184770472C0900202C09002000000000E0
:1020400010B5064C237843B9FFF7DAFF044B13B100
:102050000448AFF300800123237010BD70090020F5
:10206000000000007C08040008B5044B1BB10449C3
:102070000448AFF30080BDE80840CFE7000000004F
:10208000740900207C080400A3F5803A704700BF63
:10209000154B002B08BF114B9D46FFF7F5FF0021A4
:1020A0008B460F461148124A121A1DF02DFF0C4B99
:1020B000002B00D098470B4B002B00D098470020F6
:1020C000002104000D000B481DF0A2FD1DF0D8FDFD
:1020D0002000290000F010F81DF0A8FD0000080005
:1020E0000000000000000000000004207009002033
:1020F00024A5012055FC010008B500F015FA01F0F7
:10210000B3FA00F01BFA01F0ABF901F04FF9054802
:1021100001F09EFA01F096FA83680020984701F0DA
:10212000FFF8FEE700020000704770B50446154650
:102130000E0C8AB20146002000F052F932462146C8
:10214000012000F04DF935B1324621460220BDE8AC
:10215000704000F045B970BDF0B5012785B03A4632
:1021600003A91F208DF8027000F0A6FD0446002888
:1021700040F0DE80039D2E0C022E05D0032E02D0EF
:10218000BE4200F2D580274600210846012200F019
:10219000F1F801221146104600F0ECF827B10222B6
:1021A0000121104600F0E6F8012E40F0B880C5F39A
:1021B0000723012B40F0B3805F4B039303993A460A
:1021C0000520FFF7B2FF012203A91C2000F074FDD7
:1021D0000446002840F0AC8003993A460920FFF7F6
:1021E000A4FF012203A9112000F066FD0446002887
:1021F00040F09E80039A052100F01EF90446002855
:1022000040F09680012203A9132000F055FD0446FA
:10221000002840F08D80039A092100F00DF9044652
:10222000002840F08580002F45D040F20123ADF812
:102230000430424B42481A88ADF808209B788DF84C
:102240000A300124022201A98DF803400AF0D2FECF
:1022500022460DF103013B480AF0CCFE032202A9FD
:1022600039480AF0C7FE394939487C220AF0C2FED3
:10227000EDB2384938487C220AF0BCFE022D1AD152
:10228000224603A9142000F017FD044600284FD170
:10229000BDF80E303148ADF806302A460DF1060182
:1022A0000AF0A8FE039B2E48ADF806302A460DF131
:1022B00006010AF09FFE012203A91E2000F0FCFC8B
:1022C0000446002834D1039B03F07F038DF80630C9
:1022D0002BB1244801220DF106010AF08BFE0122E8
:1022E00003A9182000F0E8FC044608BB039B7BB15F
:1022F0001B0C012202A91C488DF808300AF07AFE56
:10230000039B1A488DF80830012202A90AF072FED8
:1023100001220DF1020116480AF06CFE08E00122CC
:1023200003A91A2000F0C8FC044600283FF446AF79
:10233000204605B0F0BD00BFEE3FEE3F46D503009E
:102340006CD4030080D403009BD403000000002061
:10235000ACD403007C000020BBD40300CAD403002B
:10236000E4D40300FED4030008D503001AD503000B
:102370002CD50300F0B58BB005AC8DF80620164ABD
:102380008DF80710034602F11007264610685168C1
:10239000254603C50832BA422C46F7D10F4C1278B5
:1023A000616820682A7002AA03C2218911802BB1BA
:1023B0003033DBB28DF817308DF80B300DF107019B
:1023C000012230460AF016FE01220DF1060102A894
:1023D0000AF010FE0BB0F0BD49D503005AD503003A
:1023E000F0B589B0134B019203AA05460C4603F1E0
:1023F000100C174618685968164603C6083363451B
:102400003246F7D119889B783180B370019BA3F5D0
:102410007A5330353034B3F57A7F8DF80F508DF81C
:10242000134005D804220DEB020138460AF0E2FD04
:1024300009B0F0BD64D50300F0B5254B8DB003ACF9
:1024400006468C4603F1200E254618685968274633
:1024500003C7083373453C46F7D119889B78BB7096
:10246000A2F10133B3F1FD3F39802CD8D3B2C2F3CE
:102470000721994229D1C2F307438B4225D1B3EBFF
:10248000126F4FEA126120D10CF1300330360DF19A
:10249000070260468DF80F608DF8133004F0C4FB1E
:1024A000044668B99DF80720130443EA0223134346
:1024B00043EA026302A90422284602930AF09AFD25
:1024C00020460DB0F0BD0024FAE76FF00A04F7E7EC
:1024D00077D503004FF0A04307B50C22C3F820279F
:1024E0000F4B40F20112C3F8402524F045FC28B1FF
:1024F000852803D00121084600F020FA25F052FE7D
:102500004FF08042D2F81834DB03FBD5054B1B6833
:1025100001934EF6602003B05DF804EB184700BF4E
:1025200000E00140A8D5030008B500F009FB032036
:1025300024F0AFFABDE80840FFF7CCBF08B5074B61
:1025400007481B68984700F003FF10B1044800F0EB
:102550007BF9BDE80840002000F056BBD8D5030049
:10256000F533000048F21953984222DC48F2025336
:10257000984205DC002814BF6FF00400002070476B
:10258000A0F505400338162810D8DFE800F00C222B
:102590000F0F0F0F0F0F0F0F0F0F0F2828282828CE
:1025A000250F282825006FF0110070476FF00400F8
:1025B000704748F25053984211D0A0F50540D4BF5F
:1025C00041386038032834BF6FF00A006FF0040010
:1025D00070476FF0050070476FF0100070476FF0A4
:1025E0000A00704708B5064B1A783AB901221A70EA
:1025F00028F0B6FEBDE80840FFF7B4BF002008BDD4
:10260000C00A002008B5054B187828B128F0C4FE90
:10261000BDE80840FFF7A6BF08BD00BFC00A002004
:1026200007B504210DEB010029F02AF8019803B049
:102630005DF804FB10B588B007ACCDE90334002386
:10264000CDE901120792009305490346022205488D
:1026500028F03EFE08B0BDE81040FFF783BF00BF82
:10266000000004008C09002010B588B007ACCDE94B
:1026700003340023CDE90112079200930549034674
:102680000222054828F024FE08B0BDE81040FFF7FC
:1026900069BF00BF240004008C09002010B5044667
:1026A00028F0BAFE2046BDE8104000F047BD00000B
:1026B00037B505464C20019100F002FD044660B19B
:1026C000019A074928F090FE20B103B0BDE83040E0
:1026D000FFF748BF2C6003B030BD6FF01000FAE781
:1026E0006C00040030B589B0CDE900239DF840505E
:1026F0000C9C06950F9DCDE904450D9D0A46CDE93C
:1027000002450D23012128F09DFE09B0BDE83040AF
:10271000FFF728BF30B587B00D9D0A9C04950C9D2E
:10272000CDE902450B9DCDE90045FFF7DBFF07B082
:1027300030BD30B589B0CDE900239DF840500C9CE8
:1027400006950F9DCDE904450D9D0A46CDE902454C
:102750000D23002128F076FE09B0BDE83040FFF7D8
:1027600001BF30B587B00D9D0A9C04950C9DCDE945
:1027700002450B9DCDE90045FFF7DBFF07B030BDFB
:1027800070B505464FF4A4700C46164600F098FC50
:1027900078B1214600F59A7304F1100251F8044B08
:1027A00043F8044B9142F9D180F84461286000203D
:1027B00070BD6FF01000FBE700F0C0BC30B589B011
:1027C00007ADCDE90335CDE901120023009307924F
:1027D00000F59A7390F84421034928F079FDFFF73A
:1027E000C1FE09B030BD00BF48000400024A1368B2
:1027F00001331360704700BFC40A0020014B1878F2
:1028000025F098BCC10A00201FB50C4A044607CA2F
:1028100001AB83E807000A490294184625F030FC12
:1028200008B124F063FA074825F064FC08B124F0ED
:102830005DFA25F051FC04B010BD00BF9CD503002B
:10284000ED270000C10A002070B5114D06460FCDDE
:102850008AB004AC0FC495E803000E4B84E8030073
:102860001E600D490D4801234FF4007200F0FFFE79
:102870000B4B0C4A00934FF40073CDE902230193F4
:10288000094A0623694604A824F09AF90AB070BDE3
:10289000B0D50300DC100020DC0E0020CC0E0020A0
:1028A000C90A0020C90C00200929000070B506469D
:1028B0000D460024A54201DC002070BD305D24F0EF
:1028C000EDF908B90134F5E71B20F6E707B50DF17E
:1028D000070024F0CDF918B9084B1A781AB118700E
:1028E00003B05DF804FB9DF80710054800F0EBFE0F
:1028F000044B03481B689847F2E700BFC80A002052
:10290000CC0E0020DC10002003785A1E012A03D8C8
:102910003721002000F012B80BB9FFF7D7BF70477E
:1029200038B5054D044645F001054FF47A40A847F7
:10293000013CFAD138BD00BFD0D50300144B2DE9BE
:10294000F047DFF850A0197005460C464FF0A0483C
:102950000DB9BDE8F0872646002EF9D003279AF876
:1029600000004FF4005925F0E5FB6420C8F80C95F1
:10297000FFF7D6FFC8F808956420FFF7D1FF013FA5
:10298000EDD14FF47A70FFF7CBFF013EE4E700BFD3
:10299000E0100020C10A0020024B187880F00100EE
:1029A000704700BF6C1100207047000070B50446EE
:1029B000032938D8DFE801F002341B2C1A4D2046D9
:1029C00028F087FA81B2194800F070FE40211748BC
:1029D00000F055FE40220146284628F07FFA0028E4
:1029E000EDD0134B11481B68BDE870401847114BE0
:1029F000002201201A7024F015F840210B4800F045
:102A00003EFEBDE8704001464022074828F066BA05
:102A1000084B0022BDE8704001201A7024F016B85F
:102A2000044B00221A7070BDF0D503007015002011
:102A3000801500206C11002008B5064B0A460121C4
:102A400019700146044828F023FAB0FA80F04009D2
:102A500008BD00BF6C110020F0D5030008B5114B74
:102A6000114918604FF480621048402300F0FFFDC8
:102A700027F0B6FC0E4B0F4800221A7026F07AFEA3
:102A800008B124F033F90C4826F016FF08B124F001
:102A90002DF926F0DBFE18B1BDE8084024F026B978
:102AA00008BD00BF801500206D11002070150020AA
:102AB0006C11002014D60300F0D50300023808B5CD
:102AC0000D283CD8DFE800F0070C3B3B3B3B1727C9
:102AD0002E3B3B3B1132BDE80840002023F0B6BF3F
:102AE000BDE80840002023F09DBF26F0C9FEBDE8E8
:102AF000084023F0BFBF26F0D7F800BB24F0C4F98C
:102B000028B124F0ADF924F0BFF90028FBD1BDE8CD
:102B1000084026F0B3BE26F0C5FEBDE80840002000
:102B200024F074B9BDE8084026F0ACBE27F052FC92
:102B3000052804D1BDE80840032000F005BE08BD0B
:102B40004FF08053D3F83021082A36D1D3F83431EE
:102B5000052B34D81B4AD35C002B0CBFFF225A2212
:102B60004FF01023D3F80832DBB2934229D0164934
:102B70000123C1F80435D1F80034002BFBD04FF00D
:102B80001020D0F8083223F0FF031343C0F80832B6
:102B90000D4A0023C1F80435D2F80034002BFBD0D5
:102BA000BFF34F8F09490A4BCA6802F4E06213432E
:102BB000CB60BFF34F8F00BFFDE7FF22D0E75A2263
:102BC000CEE7704720D6030000E0014000ED00E0B2
:102BD0000400FA05044B9A6BF1EE103A136C23F0E3
:102BE0009F031364704700BF00EF00E0054AD2E97D
:102BF00000316FF07F401B1841F10001C2E9003144
:102C0000704700BF8815002008B5084A08490948E0
:102C100024F080FC40B9074824F0BAFCBDE8084025
:102C20000448012124F01CBD08BD00BF892D00000F
:102C300026D6030000010020094B0A4A1B68D3F87E
:102C40000415094BD3E900030918A1FB020143F164
:102C5000000302FB0311C00B40EA4140C90B70475F
:102C60000001002040420F008815002038B50F4BAE
:102C70001A680D46D2F80415D2F804359942FBD0F3
:102C80000B49D1E900240B499B1844F10002A3FB36
:102C9000013401FB0244DB0B43EA4443E40BC0E98B
:102CA000003434F0C7F9286038BD00BF00010020AF
:102CB0008815002040420F002DE9F843064689465A
:102CC00017460AB37F2822D81318802B1FD800F08C
:102CD000C9FA804600F0C0F8054648B100F098F8FF
:102CE000044628B1404600F0C2FA2046BDE8F88309
:102CF0003A464946B0B234F06FFB1DB100F074F8AB
:102D00000446EFE72C46EDE76FF00A04EDE76FF0BD
:102D10000804EAE7074930B50023142404FB03F54F
:102D2000DAB26D5C854203D00133042BF6D11A462A
:102D3000104630BD9015002010B5094B00211A46F1
:102D40005C78844201D11C7C34B90131042903F13F
:102D50001403F5D1002010BD142000FB0120FAE778
:102D600090150020074A00231046117C31B1013331
:102D7000042B02F11402F8D100207047142202FB48
:102D80000300704790150020052813B504D102B048
:102D9000BDE81040FFF72ABF0190FFF7BBFF0328F3
:102DA0001CD80F4B142404FB0034D4E9013098479D
:102DB000637C01990B4863B10368D3F80425E36889
:102DC0001A4422F07F42012302B0BDE8104024F0F3
:102DD00005BC02B0BDE8104024F0E6BB02B010BD57
:102DE000901500200801002038B5084D00F03AFA8F
:102DF0002B78044623B9022034F080F901232B708C
:102E0000204600F034FA002038BD00BF1001002039
:102E100038B50F4D00F026FA2B7804469BB14FF4DD
:102E2000A0610C4800F042F84FF4C87000F066FA58
:102E30004FF41061074800F039F84FF4FA7000F0D1
:102E40005DFA00232B70204600F011FA002038BDF7
:102E50001001002020010020014B1878704700BFAE
:102E60001001002070B5084C064600252368B342C7
:102E700003D163680BB1A06898470435182D04F19D
:102E80001004F3D170BD00BFE01500201F2886BFDD
:102E900000F01F00044B4FF0A04300F5E07053F822
:102EA000200000F00100704700030050D0E900321C
:102EB00003F01F0370B543EA421369B91F2B86BFA5
:102EC00003F01F031A4A4FF0A04203F5E0730221FA
:102ED00042F82310002070BD480754BFC1F3C0045E
:102EE000032411F400650CBF00260326C1F3002261
:102EF0001F2B88BF03F01F0342EA420242EA84020A
:102F00008CBF0B484FF0A04003F5E07442EA062264
:102F100040F824201DB101229A40C0F808254A0536
:102F200042BF012202FA03F3C0F80C35D2E700BF1A
:102F300000030050D0E9000300F01F0040EA4313F3
:102F400089B11F2B8ABF094A4FF0A04203F01F032B
:102F5000D2F81005D84010F001001DBF0123002059
:102F60000B70087070476FF00A0070470003005044
:102F700037B5D0E9005305F01F050C4645EA431567
:102F800024F084F878B114F4805313D12F4A52F806
:102F900023108D4217D12846FFF778FF012818D15A
:102FA0006FF00A000DE024F02BF80028EBD06FF052
:102FB000050006E0284624F041F9284624F060F98F
:102FC000002003B030BD0433182BE0D16FF018009F
:102FD000F7E714F4F83FE3D004F4C033B3F5803FCF
:102FE0002FD0B3F5C03F07D0B3F5004FD8D1184B61
:102FF000B3F803205B7902E0154B1A889B78ADF893
:1030000004208DF80630019BADF8003022074FEA0E
:1030100013438DF8023044BF01238DF8013063075C
:1030200048BF03230B4A48BF8DF801306946284644
:1030300024F036F80028C9D10121284624F0B0F840
:10304000BEE7034BDA881B7AD9E700BFE015002002
:103050002CD60300652E000070B5D0E9004304F0C3
:103060001F0444EA43142046FFF710FF012822D032
:10307000124B00200501EE58B44207D12B449A6050
:103080000122C3E900411A73002016E0013006282E
:10309000F0D10A4D00202E7B16B903EB0013EEE7AA
:1030A0000130062805F11005F5D1204624F0C6F8B8
:1030B0006FF0180001E06FF00A0070BDE01500200D
:1030C00010B5044608B9002010BD083000F0D1F852
:1030D0000028F8D000230370044A054B4480436065
:1030E00013681B1B13600830EEE700BF500100207F
:1030F000ADDEADDE414338B50C4602D100231846A3
:1031000038BD01F1080000F0B4F805460028F5D0FC
:1031100000F108032246002118461CF0F5FE0022AB
:103120002A70044A6A60044A6C801168091B0346CD
:103130001160E4E7ADDEADDE5001002010B488B1CF
:103140000828A0F1080308D010F8080C06495C888C
:1031500051F82020224441F820205DF8044B184605
:1031600000F089B80346F8E75001002070B50C461E
:1031700058B130F8066C10F8085CA0F10803A21BE7
:103180003CB9FFF7DBFF002070BD0346064605464D
:10319000F5E7002A04DB0C4951F825108A42F2D8E1
:1031A00004F10801184600F068F80028EBD0074B3E
:1031B0004360054B44800570341B53F8256034444C
:1031C00043F825400830DFE750010020ADDEADDEDA
:1031D00070B50D46044608B9002070BD0A4E56F879
:1031E00021308342F8D3083000F043F80028F3D0B0
:1031F000064B44800570436056F825301B1B46F88B
:1032000025300830E9E700BF50010020ADDEADDE1B
:103210004143F8B516460C4602D100231846F8BDC6
:103220000E4F57F822308B42F7D301F1080000F01F
:1032300020F805460028F0D000F1080322460021BE
:1032400018461CF061FE064A6C802E706A6057F8C2
:103250002610091B47F826100346DFE7500100201F
:10326000ADDEADDE08B523F0B9F9002008BD23F0CE
:10327000BFB923F099BA23F013BB70B50C460646CC
:1032800028B9C1B1BDE87040084623F08DBA91B1AC
:10329000084623F089FA054658B156F8042C083A36
:1032A000A24228BF224631461CF094FD304623F04E
:1032B000F7FA284670BD2546FBE7000008B522F066
:1032C000EFFB044B002158434FF47A73B0FBF3F04B
:1032D00008BD00BF40420F0013B5074C23782BB93F
:1032E000019026F01DF901230198237002B0BDE87A
:1032F000104026F033B900BF4016002013B5074C2C
:1033000023782BB9019026F00BF901230198237043
:1033100002B0BDE8104026F015B900BF40160020ED
:1033200008B522F07BFB002008BD000030B5064D3B
:10333000064C0FCD0FC40FCD0FC40FCD0FC495E8B1
:10334000070084E8070030BD38D603002C090020B0
:10335000014B93F8380070472C09002030B5114D0F
:103360002B6885B02BB910480522082121F00BFBF2
:10337000286028684FF0FF3202A921F06FFB002877
:10338000F7D1029B022BF4D103990191084600F07A
:1033900045F9044600F056F90199436920469847DB
:1033A000E7E700BF541600205816002013B54FF46D
:1033B0000070FFF785FE0C4C4FF400730322CDE93B
:1033C0000032A0600346094A0948002121F086FC2A
:1033D000206030B93821012002B0BDE81040FFF76D
:1033E000ADBA02B010BD00BF4416002074D6030071
:1033F0005D330000074B1B6807B53BB10223CDE9E5
:103400000030054B6946186821F000FB03B05DF8F9
:1034100004FB00BF441600205416002007B500230B
:103420000193064B064C5D68A847052201A9206858
:1034300021F039FC00F092F8F6E700BFA8D50300B0
:1034400080160020044B1B6823B1044B0021186830
:1034500021F020BC704700BF841600208016002099
:1034600007B54FF40070FFF72BFE4FF400720221F6
:10347000CDE900210346114A1148002121F02EFC1C
:10348000104B186018B938210120FFF757FA21F0C6
:10349000E1FB0D4B186018B938210120FFF74EFAF7
:1034A00000F014F830B10921012003B05DF804EBFD
:1034B000FFF744BA03B05DF804FB00BF7CD60300FD
:1034C0001D340000841600208016002008B521F06D
:1034D000EDFA034B1860B0FA80F0400908BD00BF58
:1034E00090960020F8B5164E04460D46306840F61A
:1034F000213121F0F9FA08BB12494B888A885F1CF8
:10350000D21BC2F30E02954215DB0921FFF716FA12
:1035100009240BE0CA1810F8014B94710133C3F36E
:103520000E032A1A002AF5DC4B800024306821F0B3
:10353000FFFA2046F8BD20462544F2E70124F8E7CB
:10354000909600208816002007B5FFF7CBFF01906A
:10355000FFF778FF019803B05DF804FB2DE9F04117
:103560002A4E4FF0FF31306821F0BEFA00284AD1D0
:10357000274DAF886C88E41BC4F30E0434B90024D3
:10358000306821F0D5FA2046BDE8F08100F0E2F87D
:10359000032824D0402C1F49A0463B4628BF4FF0AB
:1035A00040080022E8180132807901F8010B01334C
:1035B0009045C3F30E03F5DCAB80FFF7C9FEA8B15D
:1035C000402C2146134828BF4021FFF76FF90028FF
:1035D000D5D01B210020FFF7B1F91B24D0E70E4BFB
:1035E0005B6998470028D5D10124C9E70A4B0948EF
:1035F0009B68414698470028C1D10B21FFF79EF9EF
:103600000B24AF80BCE70124BDE700BF90960020EB
:103610008816002094960020D8D5030010B50446E3
:10362000408930B100F00EF803692046BDE8104033
:10363000184710BD014B024A1A6070476809002004
:1036400000020000014B1868704700BF5C010020B9
:10365000034B044A002818BF03461360704700BF9D
:10366000680900205C01002000202AF0DDBB828078
:1036700000220160C28082608281C381704782889B
:10368000C38810B54489D31A121B8489121B914236
:103690009BB209DCC2899A4282BF83810023C38026
:1036A000C3880068184410BD0020FCE7C3888288E6
:1036B0000B4410B5B3FBF2F402FB1433C38043890F
:1036C0001944418110BD38B50D4601210446FFF76C
:1036D000D6FF20B105702046FFF7E8FF012038BD76
:1036E0002DE9F041458904460B460DB3954228BFAC
:1036F000154686890289B0F8048001681644B6B27E
:10370000A8EB0607BFB2BD42114414D918463A4689
:103710001CF060FB2E442168EA1B38441CF05AFB65
:10372000A6EB08060023A381268163895B1B6381C6
:103730002846BDE8F08118462A461CF04BFB238939
:103740002B442381F1E70000014B1870704700BF44
:10375000D4960020014B1878704700BFD496002003
:1037600008B501F11000FFF7ABFC38B100F1100310
:10377000436040F2031383810023038108BD0846A0
:10378000FFF7DCBC1FB5104B039000224FF4C05074
:103790001A72FFF795FC0D4C4FF4C0520321CDE98E
:1037A00000210346A0600A4A03990A4821F096FACC
:1037B000206030B93821012004B0BDE81040FFF787
:1037C000BDB804B010BD00BF809900208C990020C6
:1037D000A4D60300D5390000024B01221A72024A16
:1037E0001A60704780990020B4D60300002070470B
:1037F00008B505490B7A33B9FFF7EEFF0348BDE87A
:10380000084013F0DCB908BD80990020DC96002048
:1038100007B50223CDE90031FFF7EAFF034B694604
:10382000186821F0F3F803B05DF804FB9C990020C0
:1038300070B5534D86B0284600F07CFB0446002846
:1038400040F0908002464F49281D13F078F9044655
:10385000002840F087804C49281DFFF7BDFF13F07A
:10386000AEF9281D13F0C3FB28462C4650F8701BF8
:103870001CF09CF9294605F1400051F8042B14F086
:1038800041FF05F51F7654F8742B291D304613F0BF
:1038900051FECDE900462A46A6F50F7152F8043BC9
:1038A00005F178001AF0AAF9044600285AD12868D0
:1038B00002A900F017FD0446002853D1049821F016
:1038C000FBFA012851D1D5F8983083F838002F4BF6
:1038D00000962A68A3F1700103F5B8701CF01EF879
:1038E000044600283ED1296829481CF0FFF82849E1
:1038F000009423462A6801F1CC0015F023FD04460C
:1039000080BB23492A6801F5247015F071FF044635
:1039100040BB02461F49204814F029FFDDE9022080
:103920001E49050E40F20113CD73050C0B800D747A
:10393000059B8874050A100EC874100C08758A75EA
:10394000100A1A0ECA751A0C0A761A0A48754A76AF
:103950008B761148049B4D7434228C70C1F82F3043
:1039600014F00AFF204606B070BD022804D1D5F835
:10397000983083F83840AAE76FF01104F2E700BFEF
:10398000D8960020A8D60300809900204C970020EC
:10399000DC9600206001002018970020C8990020C4
:1039A00010B5094C23682BB908480522082120F0DE
:1039B000EAFF2060064B0022DA6000F061F9BDE802
:1039C0001040FFF735BF00BF9C990020A099002050
:1039D0008C99002037B5FFF7E3FF114B114C124DC6
:1039E00000221A72E36833B10223E360E368022B1A
:1039F00011D003B030BD28684FF0FF32694621F086
:103A00002DF80028EED1009B022BEBD10199044840
:103A100000F0B0F8E6E70120FFF75EFCE6E700BF44
:103A2000809900208C9900209C99002070B5164C3C
:103A300004F178001AF0D0F804F5F2701BF0E2FF00
:103A40001CF066F804F1D00015F0B6FC04F51F7008
:103A500013F0CFFD264604F1400014F087FE254602
:103A60000022114656F8700B00F0A4FA55F8041B1A
:103A700030461CF09BF8284613F0C8F82068BDE8D3
:103A8000704000F069BA00BFD896002008B507481A
:103A900021F0E4F9064813F0B9F8064B00221A7237
:103AA000FFF7C4FFBDE8084000F014B98C9900206E
:103AB000DC9600208099002008B5FFF7B7FFFFF7DC
:103AC000B7FEB0FA80F0400908BD000008B5FFF766
:103AD000F3FFBDE808400146014814F050BE00BFA6
:103AE000189700204160704738B50B4D296804468F
:103AF00039B1406808B1836843B912F0F9FF002377
:103B00002B60064A00231380636038BD99421A680F
:103B1000F5D01346F0E700BF009A0020049A002079
:103B2000F8B50B4F0646706813F01AFA054600B94F
:103B3000F8BD2C46218960687B6898472468002C72
:103B4000F8D170682246294613F074FAEBE700BFFB
:103B5000F008002010B5054C4068216812F0C8FF3D
:103B6000034A00232360138010BD00BF009A002089
:103B7000049A00202DE9F0474D89394EDFF8EC809A
:103B8000074689460DB9284660E032684AB1B8F860
:103B90000020032A10D933685B68DC780434A41A47
:103BA0000CE0786840F2031112F096FF30600028B4
:103BB000EDD16FF0100049E0C2F10404AC42A8BF9F
:103BC0002C46FFF74FFB3268B8F800305168A4B2BA
:103BD0001944224682464846FFF782FD281A85B2DC
:103BE0005046FFF744FB3168B8F800204B68DB789B
:103BF000224492B204339A42A8F800200AD10A81E2
:103C0000786813F0C8F8174A00233360A8F800302A
:103C10001370B7E7002AB5D0124CDFF854A0237810
:103C2000B3B120F06BFCDAE90032C01A0E4B61EB45
:103C300002014FF0000A83427AEB01030CDA3846A6
:103C4000FFF788FF84F800A06FF00A00BDE8F08756
:103C500020F054FCCAE900010123237092E700BF61
:103C6000009A0020FC990020A0860100049A002000
:103C7000089A00204089003818BF012070470000D2
:103C800010B520F0ADFD044630B10D4B0D485B681A
:103C900015219847204610BD0B4809F063FA0446E9
:103CA00020B1074B09485B681521F2E702F088FE56
:103CB00004460028EED0024B05485B681021E8E777
:103CC000F0080020C0D60300F8000020D6D603007C
:103CD000ECD6030008B502F0AAFA09F065FABDE8CF
:103CE000084020F057BD2DE9F041E2B004460E46F1
:103CF00017460021F02226A81CF006F960220021B8
:103D00000EA81CF001F9A5681C2235F8048B0021CF
:103D100068461CF0F9F80023A8F104080394ADF8F4
:103D20001C3107AC48930E2240F20D1326A96846B9
:103D3000CDE90155CDF810804694ADF8243102F05C
:103D400001F9A0B90423ADF87C3040F209132090AA
:103D5000ADF88430ADF88C0024900D2305220EA917
:103D600020461E972296ADF8943002F0EBF862B030
:103D7000BDE8F08170B5B0B1A9B1002200F15805DD
:103D80000C2606FB02F42B5D3BB9086020440A7147
:103D9000012280F85820184670BD01320A2AF0D15D
:103DA0006FF00500F8E76FF00A00F5E768B10279F7
:103DB000092A0DD850210C2313FB02130168CA18DD
:103DC0000020C8505060906070476FF00A00704744
:103DD0006FF01600704710B50C4600F1D8010120B5
:103DE000FFF788F958B1042303764FF40873C362D0
:103DF00000F1D803C36000F118030361846310BDB0
:103E0000FFF79CB9014B186000207047109A002002
:103E1000024A002343641360704700BF109A0020D9
:103E2000034610B45A6C08463AB1D4682CB1986C69
:103E3000002223465DF8044B18475DF8044B02F05E
:103E400031B8436C23B19B6813B1806C00211847D3
:103E50007047034610B45A6C08463AB114682CB146
:103E6000986C012223465DF8044B18475DF8044B1B
:103E700002F018B8084B10B41C68636C3BB11B68A7
:103E80002BB101460022A06C5DF8044B18475DF889
:103E9000044B02F007B800BF109A0020C36B0BB1AF
:103EA000006C184770470000F8B50E4B1B68DB6CC0
:103EB00005460C4683B1C36C8E6818461C2200214F
:103EC00036F8047B1CF020F8EB6C043FC0E9016677
:103ED0000761DC600020F8BD084601F0E3FF6FF0E9
:103EE0000A00F8E7109A002070B50139092988B056
:103EF000164617D80C2404FB0104636DABB16A4667
:103F000001A93046FFF7EFFE054688B9636D0099B9
:103F1000206D01AA984716B1304601F0C3FF28462C
:103F200008B070BD6FF01605F5E76FF00605F2E713
:103F30000025F0E710B5044607F023F940B900F07A
:103F4000E7FE28B901F0ACFA10B9024B1B682360F8
:103F500010BD00BF109A002008B501F0A7FA00F0CC
:103F6000DDFEBDE8084007F017B910B1836B5B6850
:103F70001847704710B5044640B1FFF7F6FF40B947
:103F8000A36B20469B68BDE8104018476FF00800FF
:103F900010BD0020FCE710B5044640B1FFF7E5FF77
:103FA00020B1A36B2046DB689847002010BD6FF05E
:103FB0000800FBE708B1C0E90F12704708B1C0E97B
:103FC0001121704710B551B10379092B0AD8006847
:103FD0000C2404FB0303C3E91421002010BD6FF07F
:103FE0000A00FBE76FF01600F8E718B1836B49B2DF
:103FF0009B6B18476FF00800704770B50D4604467C
:10400000114660B1436C1BB15B680BB1806C984783
:10401000A36B294620465B69BDE8704018476FF0E6
:10402000080070BD7047704708B100F07BBA6FF0B0
:104030000800704708B100F088BA6FF008007047B8
:1040400008B100F095BA6FF00800704710B51C4633
:1040500040B1029B00F0A6FA0028AABF206000B27F
:10406000002010BD6FF00800FBE708B530B12AB1A1
:1040700000F0B2FA00EAE07000B208BD6FF008008C
:10408000FBE708B528B100F0C3FA00EAE07000B21F
:1040900008BD6FF00800FBE770B50D4616460446F4
:1040A00040B1836BCAB2DB690421984708B9C4E9FF
:1040B000345670BD6FF00800FBE738B1D0F8D0304F
:1040C0000B60D0F8D4301360002070476FF0080008
:1040D0007047084620F04BBD20F04CBD084620F04C
:1040E0004EBD084620F048BD1FB538B1836B042291
:1040F0001B6A6946984705B05DF804FB6FF008003D
:10410000F9E71FB548B1836BADF80A101B6A0122AD
:104110006946984705B05DF804FB6FF00800F9E7C1
:104120001FB548B1CDE90023836B02221B6A6946A3
:10413000984705B05DF804FB6FF00800F9E710B18F
:10414000836BDB6B18476FF00800704718B102B142
:10415000526800F05BB96FF00800704708B518B1FD
:1041600000F06EFA002008BD6FF00800FBE718B100
:1041700002B1526800F062B96FF00800704710B4E5
:10418000019C30B104B1646801945DF8044B00F007
:104190006DB96FF008005DF8044B704710B4019CD6
:1041A00030B104B1646801945DF8044B00F07CB94F
:1041B0006FF008005DF8044B704770B588B0044696
:1041C0000D9DC8B10DB1287EC8B90E980079013097
:1041D000002607900F98E064CDE9056605B16D688B
:1041E00005A8CDE901500C980090204600F07AF91E
:1041F0000023E36408B070BD6FF00800FAE76FF0C9
:104200000400F7E710B5044620B1C06801F04AFE8B
:104210000023E36010BD000008289FBF044B1E224E
:1042200002FB0030417794BF00206FF00A00704716
:104230007401002008B100F048BA6FF00A0070471E
:1042400018B1C0E93212002070476FF00A007047C1
:1042500010B50C468CB0B8B1694600F002FA88B9C6
:10426000039B6360029B2360059BE360049BA36048
:10427000079B6361069B2361099BE361089BA36124
:104280000A9B23620CB010BD6FF00A00FAE710B56C
:104290000C4660B1FFF712F84FF47A730A46A0FBA0
:1042A000030103FB0211C4E90001002010BD6FF0FF
:1042B0000A00FBE76FF01100704708B100F022BA66
:1042C0006FF00800704713B50C4640B101A900F02B
:1042D000E2F910B9BDF80430238002B010BD6FF0D0
:1042E0000800FAE71FB50C4668B1694600F00DFA00
:1042F00038B9DDE90023C4E90023029BA360039BD6
:10430000E36004B010BD6FF00800FAE700207047CA
:1043100070470000024B18600620998102F010BE21
:10432000209A00202DE9F0410B4688B0054614463E
:10433000002951D02B4E92F800E03768E7B12A4AA5
:104340001268824218D1294A1278724512D8227016
:10435000394618461BF03EFD24783846FEF7EEFE3F
:1043600000218C42316019DB284608B0BDE8F041DD
:10437000FFF7D0BF1E4CF0E71E4A6F4602F120083F
:104380003E4610685168BC46ACE80300083242451E
:104390006746F6D1BEF11F0F0DD8154CC4F17F440E
:1043A00004F57F0404F56F44FA34102C17D8124B2F
:1043B00033F91410D8E7202222702ABA3446079223
:1043C00008AE224603CAB24218605960144603F18F
:1043D0000803F6D10021C7E76FF00A01C4E76FF0C8
:1043E000A201C1E7189A0020149A00201C9A00200C
:1043F000F8EFFFFFFDD603001ED70300024BB3F911
:104400000C20196806F08AB8209A002037B5C568D4
:1044100001920C46D5F8D8004FF0FF3120F064FB34
:104420002146019A0023284605F006FD0446D5F8EA
:10443000D80020F07DFB204603B030BD37B5C568FD
:1044400001920C46D5F8D8004FF0FF3120F04CFB1C
:104450002146019A0023284605F07AFD0446D5F846
:10446000D80020F065FB204603B030BD30B5C568EC
:1044700085B00C46D5F8D8004FF0FF31CDE90232B7
:1044800020F032FB0021019108990091DDE9023210
:104490002146284605F0E5FC0446D5F8D80020F072
:1044A00047FB204605B030BD30B5C56885B00C4629
:1044B000D5F8D8004FF0FF31CDE9023220F014FBDF
:1044C0000021019108990091DDE902322146284638
:1044D00005F054FD0446D5F8D80020F029FB20460D
:1044E00005B030BD30B5C56887B00C46D5F8D800EA
:1044F0004FF0FF31CDE9043220F0F6FA0C99029129
:104500000B9901910A990091DDE904322146284670
:1045100005F045FD0446D5F8D80020F009FB2046FB
:1045200007B030BD38B5C4684FF0FF31D4F8D800BB
:1045300020F0DAFA236E2046DB6E98470546D4F861
:10454000D80020F0F5FA284638BD38B5C4684FF0D9
:10455000FF31D4F8D80020F0C7FA236E20461B6F35
:1045600098470546D4F8D80020F0E2FA284638BD2E
:1045700073B5C4680D46D4F8D8004FF0FF31CDE9CB
:10458000003220F0B1FA216EDDE900324E6F204694
:104590002946B0470546D4F8D80020F0C9FA284685
:1045A00002B070BD73B5C4680D46D4F8D8004FF0A2
:1045B000FF31CDE9003220F097FA216EDDE90032BB
:1045C0008E6F20462946B0470546D4F8D80020F023
:1045D000AFFA284602B070BD37B5C5680192D5F86C
:1045E000D8000C464FF0FF3120F07EFA2B6EDB6FC7
:1045F0005BB12146019A284698470446D5F8D80071
:1046000020F096FA204603B030BD6FF01104F5E7B4
:1046100038B5C5684FF0FF31D5F8D80020F064FAFE
:104620002B6ED3F8803043B1284698470446D5F81E
:10463000D80020F07DFA204638BD6FF01104F6E76F
:1046400010B5C4684FF0FF31D4F8D80020F04CFA10
:10465000204605F0EFFBD4F8D800BDE8104020F06C
:1046600067BA38B5C5680C46D5F8D8004FF0FF31A9
:1046700020F03AFA2B6ED3F88C304BB12146284605
:1046800098470446D5F8D80020F052FA204638BDA5
:104690006FF01104F6E738B5C5680C46D5F8D800B8
:1046A0004FF0FF3120F020FA2B6ED3F890304BB151
:1046B0002146284698470446D5F8D80020F038FA15
:1046C000204638BD6FF01104F6E737B5C568019292
:1046D000D5F8D8000C464FF0FF3120F005FA2B6ECC
:1046E000D3F894305BB12146019A28469847044696
:1046F000D5F8D80020F01CFA204603B030BD6FF08A
:104700001104F5E76FF01100704738B5C5680C4625
:10471000D5F8D8004FF0FF3120F0E6F92B6ED3F832
:10472000A0304BB12146284698470446D5F8D8001A
:1047300020F0FEF9204638BD6FF01104F6E7037D46
:10474000033B022B0BD8C368D3F8A8303BB1D0F899
:10475000CC21934214BF00206FF01200704700205C
:104760007047C368D0F89410586906F0A9BC037D5F
:10477000033B022B01D90CF044B8002070470CF029
:104780003DB8F8B5C46803230E460546237609F004
:1047900006FE05F59073236473682362B368E063D3
:1047A000636228460AF087FC3146284604F1180760
:1047B0000CF021F808B1002323763846F8BD0CF040
:1047C00013B8037D033B022B07D8C368D3F8A83086
:1047D0001BB1D0F8CC21934201D00BF0F8BF704749
:1047E0000BF084BB0AF0FCBC0AF025BD08B5C0681C
:1047F000B8300AF0C3FD002008BD0AF076B91346B0
:104800000A4619460AF034B90AF0AEB900231A462E
:1048100009F0C7BA2DE9F3410C46D0E90E56074618
:104820004FF0021801AB042201212046CDF804808C
:1048300009F0B7FA10B16FF00E0027E201AB0422C5
:1048400002212046CDF8048009F0ABFA0028F2D10D
:10485000012201AB032120468DF8042009F0A1FAC2
:104860000028E8D104212046FFF7D0FF0028E2D13C
:1048700007212046FFF7CAFF0028DCD10821204687
:10488000FFF7C4FF0028D6D109212046FFF7BEFF5D
:104890000028D0D10A212046FFF7B8FF0028CAD14E
:1048A0000B212046FFF7B2FF0028C4D11421204677
:1048B000FFF7ACFF0028BED115212046FFF7A6FF69
:1048C0000028B8D118212046FFF7A0FF0028B2D158
:1048D00017212046FFF79AFF0028ACD11921204666
:1048E000FFF794FF0028A6D11A212046FFF78EFF7C
:1048F0000028A0D11B212046FFF788FF00289AD16D
:104900001C212046FFF782FF002894D11321204666
:10491000FFF77CFF00288ED108230193042201AB0E
:104920002221204609F03DFA002884D12421204686
:10493000FFF76CFF00287FF47EAF26212046FFF7AB
:1049400065FF00287FF477AF27212046FFF75EFF41
:1049500000287FF470AF28212046FFF757FF00287A
:104960007FF469AF3B6C1B691A7803EB82032B2140
:104970005B68ADF80430022201AB204609F011FA61
:1049800000287FF458AF024606F00C0313430DD005
:104990002D212046FFF73AFF00287FF44CAF2E214F
:1049A0002046FFF733FF00287FF445AF05F0A00253
:1049B0000023134340F06D8105F4A07200231343DC
:1049C00006D030212046FFF721FF00287FF433AFC7
:1049D00005F004020023134306D031212046FFF7DF
:1049E00015FF00287FF427AF05F0080200231343CA
:1049F00006D032212046FFF709FF00287FF41BAFC5
:104A000005F400220023134306D034212046FFF78B
:104A1000FDFE00287FF40FAF05F4001200231343BE
:104A200006D033212046FFF7F1FE00287FF403AFC4
:104A300005F000520023134306D035212046FFF72E
:104A4000E5FE00287FF4F7AE05F080420023134313
:104A500006D036212046FFF7D9FE00287FF4EBAEC2
:104A600005F000420023134306D037212046FFF70C
:104A7000CDFE00287FF4DFAE002206F001031343D1
:104A800006D038212046FFF7C1FE00287FF4D3AEC0
:104A9000002206F00203134340F003813A2120462E
:104AA000FFF7B4FE00287FF4C6AE024606F004030A
:104AB000134340F0FE80002206F00803134306D0A3
:104AC0003C212046FFF7A2FE00287FF4B4AE00226E
:104AD00006F01003134306D03D212046FFF796FE53
:104AE00000287FF4A8AE002206F02003134306D06E
:104AF0003E212046FFF78AFE00287FF49CAE05F099
:104B000020020023134306D03F212046FFF77EFEFC
:104B100000287FF490AE05F040020023134306D036
:104B200040212046FFF772FE00287FF484AE05F096
:104B300080020023134306D041212046FFF766FE82
:104B400000287FF478AE05F480720023134306D06A
:104B500042212046FFF75AFE00287FF46CAE05F490
:104B600080620023134306D043212046FFF74EFE08
:104B700000287FF460AE05F400620023134340F088
:104B8000A0807B6A0193042201AB4621204609F0F4
:104B900008F900287FF44FAEBB6A0193042201ABF1
:104BA0004721204609F0FDF800287FF444AE09F0C3
:104BB000D3FCC10700F18D8009F0CEFC020700F1A3
:104BC000908009F0C9FCC30600F1938002238DF8A0
:104BD0000430012201AB4E21204609F0E2F8002802
:104BE0007FF429AE4F212046FFF710FE00287FF406
:104BF00022AE50212046FFF709FE00287FF41BAEAD
:104C000051212046FFF702FE00287FF414AE522106
:104C10002046FFF7FBFD00287FF40DAE5321204610
:104C2000FFF7F4FD00287FF406AE54212046FFF77D
:104C3000EDFD00287FF4FFAD024606F0400313436C
:104C40005FD1002206F08003134306D05621204690
:104C5000FFF7DCFD00287FF4EEAD002206F4807340
:104C6000134306D057212046FFF7D0FD00287FF4DC
:104C7000E2AD002206F40073134306D0582120460B
:104C8000FFF7C4FD00287FF4D6AD002002B0BDE8D8
:104C9000F0812F212046FFF7B9FD00283FF48CAEAC
:104CA000C9E539212046FFF7B1FD00283FF4F6AEF3
:104CB000C1E53B212046FFF7A9FD00283FF4FBAEEC
:104CC000B9E544212046FFF7A1FD00283FF459AF84
:104CD000B1E548212046FFF799FD00283FF46CAF6D
:104CE000A9E54B212046FFF791FD00283FF469AF6D
:104CF000A1E54C212046FFF789FD00283FF466AF6F
:104D000099E555212046FFF781FD002899D092E5CD
:104D1000014806F0EDBE00BF84020020014806F005
:104D20002FBF00BF84020020D0F8A400406A10B159
:104D3000C3E900120120704707B5019201AB0422BC
:104D400009F02FF803B05DF804FB00F0E1BE10B5E8
:104D50000C4611461A46052C16D8DFE804F003125B
:104D600006090C0F00F0B4FE10BD00F0B9FEFBE721
:104D700000F0B6FBF8E700F0D9FBF5E700F024FD02
:104D8000F2E700F059FEEFE76FF00A00ECE700F001
:104D9000BBBE000038B54FF4B87105460120FEF7E0
:104DA000A9F9044620B1034B4561036000F06CFE95
:104DB000204638BD94D7030010B5044600F07EFEAF
:104DC00054B14FF4B872002120461BF09DF82046E4
:104DD000BDE81040FEF7B2B910BD2DE9F3410D4614
:104DE0001C21044609F008F80646A0B105F10208A6
:104DF00000272B78BB4213DC3146204608F0C2FF67
:104E0000EB88ADF8063002220DF106032021204682
:104E100008F0C7FF08B16FF00C0002B0BDE8F081E8
:104E200038F8023BADF8063002220DF10603394690
:104E3000204608F0B6FF0028EDD10137D9E72DE96B
:104E4000F04F90F8A830032B8FB004462FD1D0F844
:104E5000203103B1DB6803F580630022CDE9003225
:104E60006069D4F890300622214609F08BF9054696
:104E7000002800F0588294F8A8308DF830300122D4
:104E80000CAB114608F08DFF08BB0221284608F044
:104E9000B3FF0746D8B194F8A830013B042B16D8CD
:104EA000DFE813F00800220098014602A5024FF443
:104EB0008063D2E794F8F8308DF8303001220CABE3
:104EC0001146284608F06DFF002800F0248294F86F
:104ED000A830032B04D1D4F8200108B100F0E2FF80
:104EE000284600F0DFFF1EE20023CDE90C3394F8E2
:104EF0005E318DF83030D4F85031DBB19AB2C3F363
:104F00004E011FFA81F84FF0000990B20021CDE95F
:104F10000289CDE9060104F5A273012608920993DE
:104F20009DF83020731E9A4200F3CC80B4F85C31B7
:104F3000ADF83630B4F88A307BB1D4F8480120B1EE
:104F4000FEF7FCF80023C4F84831D4F84C0120B136
:104F5000FEF7F4F80023C4F84C31002301228DF849
:104F60002C3011460BAB284608F01BFF0028AED1B1
:104F7000D4F8002102212846FFF7DEFE0028A6D142
:104F8000D4F8042103212846FFF7D6FE00289ED13D
:104F9000D4F8082104212846FFF7CEFE002896D138
:104FA000D4F80C2105212846FFF7C6FE00288ED133
:104FB000D4F8102106212846FFF7BEFE002886D12E
:104FC000D4F8142107212846FFF7B6FE00287FF405
:104FD0007EAFD4F8182108212846FFF7ADFE00283F
:104FE0007FF475AFD4F81431D4F81C211A44D4F8E6
:104FF0000C3109211A442846FFF79EFE00287FF451
:1050000066AFD4E947321A44D4F814311A44D4F8BC
:105010000C310A211A442846FFF78EFE00287FF43F
:1050200056AFD4E948321A44D4F81C311A44D4F8A3
:1050300014311A44D4F80C310B211A442846FFF7D6
:105040007BFE00287FF443AFD4E949231344D4F80E
:1050500020211344D4F81C211344D4F81421134400
:10506000D4F80C210C211A442846FFF765FE0028CD
:105070007FF42DAFD4F82C210D212846FFF75CFEDC
:1050800000287FF424AFD4F830210E212846FFF702
:1050900053FE00287FF41BAFD4F858311BB1D4F86D
:1050A000542192FBF3F30B9304220BAB1F212846F0
:1050B00008F077FE00287FF40AAF0CA92846FFF716
:1050C0008CFE01E7B4F88A20012A0BD9530005931E
:1050D000089BB3EB420F05DD099B53F826E0BEF1B8
:1050E000000F12D104EBC603D3E94C0C0299DDE9A1
:1050F00006230818039941EB0C0137F0A1FD0CAB16
:1051000080B223F8160001360AE74FF0000CE246A1
:10511000E046E14663463EF813104FEA430BA9B15F
:105120004A4513DD1FFA89FAA2EB0A0080B28142D8
:1051300085BFAAEB020A8A444FF0000A1FFA8AFAD6
:1051400098BF08462EF80BA081449A46C3F1780B0D
:105150003EF81B10A9B1424513DD1FFA88FCA2EBF3
:105160000C0080B2814285BFACEB020C8C444FF046
:10517000000C1FFA8CFC98BF08462EF81BC0804418
:10518000DC46059809EB08018842D8BF7923013332
:10519000782BC0DD002200200021E24508DD4FEA27
:1051A000520C10EB0C004FF0000341F10001A4E79A
:1051B0003EF81A305BB14FEACA1808F5205803FBD5
:1051C00008F810EB08001A4441EBE87192B20AF1BA
:1051D000010AE2E794F8F8308DF8303001220CAB88
:1051E00011462846D4F8206108F0DBFD00287FF442
:1051F0006EAED4F800210F212846FFF79DFD002850
:105200007FF465AEB4F80431ADF8303002220CAB57
:105210001021284608F0C5FD00287FF458AEB4F8E8
:105220000631ADF8303002220CAB1A21284608F0C6
:10523000B8FD00287FF44BAEB4F80C31ADF8303037
:1052400002220CAB1B21284608F0ABFD00287FF49E
:105250003EAEB4F80831ADF8303002220CAB1D215F
:10526000284608F09EFD00287FF431AEB4F80E31D8
:10527000ADF8303002220CAB1E21284608F091FD1B
:1052800000287FF424AE94F814318DF830300122D8
:105290000CAB1121284608F084FD00287FF417AEDE
:1052A000B4F81231ADF8303002220CAB122128468E
:1052B00008F077FD00287FF40AAEB4F91E310C9394
:1052C00004220CAB1F21284608F06BFD00287FF458
:1052D000FEAD5EB3B389ADF8303002220CAB1321C2
:1052E000284608F05EFD00287FF4F1AD04F58B71CF
:1052F0002846FFF772FD00287FF4E9AD5EB1D6E9DC
:1053000002321421284608F04CFD00287FF4DFAD5E
:10531000304600F0C7FD3946284608F033FD606985
:10532000294606F09FF90FB0BDE8F08F3346D2E76B
:1053300094F8F8308DF8303001220CAB1146284635
:10534000D4F88C6008F02DFD00287FF4C0ADD4F8AF
:10535000102117212846FFF7EFFC00287FF4B7AD96
:10536000B4F81431ADF8303002220CAB18212846C5
:1053700008F017FD00287FF4AAADD4F80821152104
:105380002846FFF7D9FC00287FF4A1ADB4F80C3112
:10539000ADF8303002220CAB1621284608F001FD92
:1053A00000287FF494AD04F580712846FFF715FDC1
:1053B00000287FF48CADB4F916310C9304220CABA9
:1053C0001F21284608F0EDFC00287FF480ADF3682B
:1053D000ADF8303002220CAB1321284608F0E1FC76
:1053E00000287FF474ADD6E90232142169E594F8FF
:1053F000F8308DF8303001220CAB1146284608F009
:10540000D0FC00287FF463ADD4F810211921284680
:10541000FFF792FC00287FF45AADB4F81431ADF8D0
:10542000303002220CAB1A21284608F0BAFC0028C2
:105430007FF44DADB4F81A31ADF8303002220CAB28
:105440001B21284608F0ADFC00287FF440ADB4F8DD
:105450001631ADF8303002220CAB1D21284608F081
:10546000A0FC00287FF433ADB4F81C31ADF8303027
:1054700002220CAB1E21284608F093FC00287FF482
:1054800026ADB4F928310C9304220CAB1F21284619
:1054900008F087FC00287FF41AAD04F590710DE642
:1054A000014806F0EBB800BF90020020014806F06A
:1054B0000DB900BF9002002007B5019201AB042294
:1054C00008F06FFC03B05DF804FB07B58DF807200A
:1054D0000DF10703012208F064FC03B05DF804FB42
:1054E00038B50146054610234069032208F027FE1F
:1054F0000446C0B100220321FFF7DEFF68B9D5F8EA
:10550000A43004211A782046FFF7DFFF28B9686924
:105510002146BDE8384008F028BE204600F0C2FC15
:105520006FF00E0038BD6FF01000FBE7F7B50446D2
:1055300000F0F9FA0646002840F0408160694FF417
:1055400080630422214608F0FAFD0546002800F099
:10555000388132460321FFF7AFFF002840F0288151
:105560000521284608F048FC0746002800F0208165
:1055700094F8482001212846FFF7A7FF002840F0B3
:105580001781B4F84A30ADF8063002220DF1060357
:105590001146284608F005FC002840F00981B4F8BF
:1055A0004C30ADF8063002220DF1060303212846E7
:1055B00008F0F7FB002840F0FB8094F84E2004210F
:1055C0002846FFF782FF002840F0F28094F84F2031
:1055D00005212846FFF779FF002840F0E98063693C
:1055E000226D5B69B2FBF3F206212846FFF764FFE8
:1055F000002840F0DD8094F8542007212846FFF76A
:1056000064FF002840F0D48094F8582008212846F0
:10561000FFF75BFF002840F0CB8094F85C20092165
:105620002846FFF752FF002840F0C28094F85D2022
:105630000B212846FFF749FF002840F0B98094F875
:105640005E200C212846FFF740FF002840F0B08084
:1056500094F85F200D212846FFF737FF002840F01F
:10566000A78094F860200E212846FFF72EFF00281F
:1056700040F09E8094F8612010212846FFF725FF16
:10568000002840F0958094F862200A212846FFF710
:105690001CFF002840F08C8094F863200F212846DE
:1056A000FFF713FF002840F08380626E1121284627
:1056B000FFF702FF00287BD194F8682012212846CA
:1056C000FFF703FF002873D1E26E13212846FFF78E
:1056D000F3FE00286CD16369206F1A684FF47A7664
:1056E000A0FB060192FBF6F2D31737F0A9FA1421BA
:1056F00002462846FFF7E0FE002859D16369606F33
:105700001A6892FBF6F2A0FB0601D31737F098FA5D
:10571000152102462846FFF7CFFE002848D16369CD
:10572000A06F1A6892FBF6F2A0FB0601D31737F0C0
:1057300087FA162102462846FFF7BEFEC0BB94F842
:105740007C2017212846FFF7C0FE88BB94F87D20F7
:1057500018212846FFF7B9FE50BBD4F88020192144
:105760002846FFF7A9FE18BBD4F884201A21284642
:10577000FFF7A2FEE0B994F888201B212846FFF726
:10578000A4FEA8B9B4F88A30ADF8063002220DF1B3
:1057900006031C21284608F004FB48B93946284670
:1057A00008F0F0FA6069294608F0DFFC03B0F0BDAC
:1057B000284600F077FB6FF00E00F7E76FF00F0060
:1057C000F4E76FF01000F1E7F0B51646A7B0044615
:1057D0000A4671B16EB1336800930521934B02A85C
:1057E00008F060FC05B2002D40F01881079A676947
:1057F00012B96FF00A0511E1336800931D218C4B3B
:1058000008A808F04FFC05B2002D40F0078108A958
:10581000204600F069F90546002840F0FF800F9B04
:10582000002B40F0CD80099B002B40F0D1800A9BDB
:1058300013B19B88A4F84A300B9B13B19B88A4F842
:105840004C300C9B13B11B7984F84E300D9B13B177
:105850001B7984F84F300E9A22B1636959695368F5
:105860004B4323650F9B0BB11B796365109B0BB1F9
:105870001B79A365119B13B11B7984F85C30139BD2
:1058800013B11B7984F85D30149B13B11B7984F834
:105890005E30159B13B11B7984F85F30169B13B1F2
:1058A0001B7984F86030189B13B11B7984F8613040
:1058B000129B13B11B7984F86230179B13B11B79CB
:1058C00084F86330199B0BB15B6863661A9B13B154
:1058D0001B7984F868301B9B0BB15B68E3661C9BEB
:1058E00073B162694FF47A70116891FBF0F15868F6
:1058F0004FF47A72002381FB000137F0A1F9206791
:105900001D9B73B162694FF47A70116891FBF0F1DD
:1059100058684FF47A72002381FB000137F090F948
:1059200060671E9B73B162694FF47A70116891FBD6
:10593000F0F158684FF47A72002381FB000137F0D0
:105940007FF9A0671F9B13B11B7984F87C30209BE3
:1059500013B11B7984F87D30219B13B15B68C4F8C7
:105960008030229B13B15B68C4F88430239B13B151
:105970001B7984F88830249B13B19B88A4F88A3063
:10598000259FB7B13E88D4F88C00043E08B100F0E2
:1059900089FA0022C4F88C205EB16069314605F0B6
:1059A00052FAC4F88C0000283DD03246391D00F070
:1059B00086FA94F862307BB1012B32D0FA230CE0E6
:1059C0001979384605F07CFB00283FF42CAF10E72E
:1059D0001B7984F848302AE7402384F8F03094F8A3
:1059E0005D30144A012B0CBF40232023A4F8F23071
:1059F00094F85E3084F8F43094F86330003B18BFBC
:105A0000012384F8F63094F86030D35C84F8F530E4
:105A1000022384F8F730204600F06EF8284627B0BD
:105A2000F0BD7D23D9E76FF01005F7E7C8D7030075
:105A300014D8030010D8030030B5144689B00546C9
:105A40000A4619B96FF00A0009B030BD002CF9D030
:105A50002368009305210B4B02A808F023FB00B23A
:105A60000028F1D1039B002BECD01979062903D132
:105A7000284600F049F8E7E72246284600F040F8BB
:105A8000E2E700BFC8D70300024BC0F8A4305B6850
:105A9000184700BF7CD90300D0F8A4309B6870B5CC
:105AA00004460D4603B198476B68C4F8A4501BB177
:105AB0002046BDE87040184770BD00000349D0F88B
:105AC000A4308B4201D0FFF7E7BF70477CD90300B9
:105AD000D0F8A430DB6803B118476FF005007047B9
:105AE000D0F8A4301B691847D0F8A4305B6903B123
:105AF00018476FF00F007047D0F8A4309B69184723
:105B0000D0F8A430DB691847D0F8A4301B6A1847D6
:105B1000D0F8A4305B6A03B1184718467047D0F834
:105B2000A4309B6A1847D0F8A4301878431E584216
:105B3000584170476FF00F0070476FF00F007047CB
:105B400038B548220446002110441AF0DDF900253A
:105B5000012309220A21C4E9152184F85D3084F863
:105B60006830A4F84E50204600F047F9204602491C
:105B7000FFF792FF284638BDA8D9030010B50446A8
:105B8000D0F88C0008B100F08DF90023C4F88C30F7
:105B900010BD6FF00F007047704700207047000085
:105BA00008B50249FFF778FF002008BD7CD9030043
:105BB00010B5044600F021F928B920460249BDE895
:105BC0001040FFF769BF10BD24F003002DE9F34139
:105BD00004460F46416D4069904605F071FA05464E
:105BE000002859D1606901A905F00FFA054600287F
:105BF00052D17B1E042B72D8DFE803F00D03196D20
:105C00007400E36E002B6AD0012B02D9236F002BA6
:105C100065D001260CE0E36E002B60D0012B02D989
:105C2000236F002B5BD094F87C30002B38D10026FA
:105C3000D8F80830C4F8903084F8A87068220021A1
:105C400004F1F8001AF060F976B1B4F88A305BB16B
:105C5000F2210120FDF74EFAF221C4F8480101209B
:105C6000FDF748FAC4F84C01012304F5B0766376D9
:105C70006069E66305F0C6F907C8636D86E807004A
:105C8000C4F86431A36D1A49C4F868312046FFF79F
:105C900003FF606905F0B7FE284602B0BDE8F08159
:105CA000D4F88C30002BC2D0D968022917D9023918
:105CB0009A68D96012780F4EDFF83CC00021D8688E
:105CC0008142B4D2986806FB02C24FEA122E00F855
:105CD00001E00131F3E7D4F88C30002BA7D16FF04D
:105CE0000A05D9E794F85C30032BF8D1236DF4E76B
:105CF000D4D903000D6619005FF36E3C002380F8D1
:105D00009830C0F89430FF2380F8F83070476FF077
:105D1000050070476FF0050070476FF00500704791
:105D20001FB50123009304468DF80C3009494069E2
:105D300003AB002205F08BF910B1FF2384F8F83093
:105D4000204600F05AF804492046FFF7A5FE04B0AB
:105D500010BD00BF00EEB1C8A8D9030030B585B0B2
:105D600000238DF80C3090F8A830C0F89C10042B5C
:105D7000044600F118051ED0052B1FD00DF050FA77
:105D800094F87C3023B194F8A8305A1E5342534102
:105D90008DF80C30012300930A49606903AB00229F
:105DA00005F055F920B108492046FFF775FE00259A
:105DB000284605B030BD0DF0E9FAE1E70DF0DCFB57
:105DC000DEE700BF00EEB1C8A8D9030010B590F817
:105DD00099403CB9012380F89930406905F013FEE1
:105DE000204610BD6FF00500FBE710B50446FFF735
:105DF00026F8002384F8993010BD024690F862001E
:105E0000936D98B9093B0F2B34D892F85E3013F09C
:105E1000FD032FD192F86000A0B992F85D30012BFC
:105E200028D192F85F30012B14D97047193B072B0A
:105E300008D892F85E302BB1012805D192F8603075
:105E4000012B07D900207047022803D192F8603057
:105E5000012BF7D992F85C1092F85F0019B9B0FAEB
:105E600080F04009704728B1032902D1D2F88C0094
:105E7000F5E7012070470020704710B50446303028
:105E8000FDF7A6F950B1002300F13002C0E900335C
:105E9000C0E9022314448261C461038210BD002161
:105EA000FFF7EBBFFDF74AB9C3688B4288BFC160FB
:105EB0007047D0E902231944C160D018704738B543
:105EC000D0E902541319C360281919F083FF002088
:105ED00038BDD0E902230A44591A8260C160704774
:105EE0000368C1E900305960016070474368086089
:105EF0004B6019604160704782B0034600680190B2
:105F0000019A934217BFD0E90023002053601A6022
:105F10001CBF0023C0E9003302B0704710B504462F
:105F20002046FFF7E9FF00B910BDFDF707F9F7E7D5
:105F300010B5044628B1C06818B1FDF7FFF800237A
:105F4000E36010BD2DE9F04F85B00369019343680C
:105F5000836007460D4690464FF00009019B002BD9
:105F600006DC00230D35984580F29180002007E083
:105F700001A938460DF02AFB044620B96FF00A004B
:105F800005B0BDE8F08F019A032AF7DD0388032BE3
:105F9000F4D99A42F2DB468826F44046B0451EDB2F
:105FA000330105EB0616327BCAB1717B013A41F031
:105FB000020171730C2A12D8DFE802F0070B181CDB
:105FC000262A2124262A36405200EB5801221A7034
:105FD00005E0EA580379003B18BF0123137001AABA
:105FE000214638460DF0FBFAB860B7E7EB5890F958
:105FF0000420ECE7B0F90420EB581A80EFE7EB58E7
:106000000279E4E78288F7E7EB5842681A60E6E72E
:106010000246EE5852F8040F516802AB03C3DDE9A3
:106020000223C6E90023DAE70288B188043A8A42EB
:10603000A4DC011DE8581AF0A1FED0E7B0F800A0DA
:10604000B288AAF1040A924598DC011D5246E8582C
:1060500019F0C0FEB368002BC1D0C3F800A0BEE7A2
:10606000EB589F428AD082461C22184600213AF8FB
:1060700004BB19F049FF2388FA68C260ABF1040B36
:10608000043BC0E901AAC0E904B9B380A7E71A013B
:10609000AA5C02F00302012A01D0013363E76FF02A
:1060A00014006DE72DE9F04389B09046DDE9102436
:1060B000DDF848C006460F4662B923604368636056
:1060C0000369A360A5680DBB8CF80050284609B091
:1060D000BDE8F083012A02BF22689B1A23600020DA
:1060E0000B464045EEDC5A7B22F002025A731A7BC3
:1060F0000D2A08D0196831B125689A6829441960B9
:106100000AB12A449A6001301033EAE76568012336
:1061100035F8049B8CF800301C22002101A819F0EE
:10612000F3FEA9F10409F368CDF81490424639460C
:1061300001A8CDE902550493FFF704FF05460028A6
:10614000C4D1616804F1080230460DF048FA60607D
:10615000BCE743684B6003698B60002070472DE902
:10616000F0411446926806460D461AB91A7000208E
:10617000BDE8F0816768012237F8048B1A700021AE
:106180001C22284619F0C0FEA8F10408F3686168D3
:10619000C5F81080C5E90177EB6004F108023046CC
:1061A0000DF01DFA6060E2E738B50D461946144659
:1061B0000DF00CFA38B1438823F44042DB0B2A601F
:1061C0000020237038BD6FF00A00FBE7F0B584684B
:1061D000156823881E1F033323F003039D420BDB46
:1061E000E718EB1A043487601360C1E90144C1E980
:1061F000046608600020F0BD6FF00A00FBE7F0B510
:1062000085681E682C88271F033424F00304A642E7
:106210000ADB05EB040C341B0435C0F808C01C6015
:10622000002017600D60F0BD6FF00A00FBE708B5B5
:1062300000F01AFFBDE808401EF05ABE70B50E68A7
:106240000446F0070D4603D5B4F8520130F0AAFF1A
:10625000B10702D5204630F0B9FF720703D5B4F874
:10626000540130F08BFF330705D5B4F85811B4F85A
:10627000560130F0E5FF2B6823F00F032B6070BD53
:1062800010B5FF21044603201EF06FFC2046BDE838
:10629000104003F082B97047D0F874314BB190F8D8
:1062A0007A3133B1037A092B08BF013090F87801B5
:1062B00070471846704713B5044600F5BD7007F0E7
:1062C00089F90DF1070007F08BF99DF807204FF4CD
:1062D0007A735343C4F8743104F5BC71002007F09D
:1062E00085F904F27911012007F080F902B010BDA0
:1062F00090F8963010B5044653B9FF2103201EF0E4
:1063000034FC204603F062F80123A06684F896303E
:1063100010BD00002DE9F0410446884617461E4690
:10632000FFF7BAFF054648B30B6893B9D4F8740178
:106330001449154A0023A0FB010136F081FC01231A
:1063400030443860C8F800302046FFF7D1FF002500
:1063500014E010680B4A861B0B48002386FB0001E3
:1063600036F06EFC00280146EEDDD4F87401884258
:10637000EAD2091AE8D0204603F049F92846BDE8D8
:10638000F08100BF8009EE0040420F0090F8963087
:1063900010B5044653B1FF2103201EF0E7FB204651
:1063A00003F014F80023E06684F8963010BD90F8EE
:1063B000983013B1002380F8983070470020704760
:1063C000982881BFC0EB801300EB83006623B0FBED
:1063D000F3F086BF7938C0B20120704713B5B0F82A
:1063E00030410DF1060030F0D7FFBDF90600C0EBDB
:1063F000C010400090FBF4F0002805DDFD2805DC0E
:106400000130C0B202B010BD0120FBE7FF20F9E768
:1064100000230022C0E92C230023C0E92E33C0E969
:106420003033704770472DE9F3410C1E054610DAF2
:1064300000230DF107008DF8073031F0ABF89DF81F
:106440000730DB0744BFEB6A43F00803044648BF4C
:10645000EB62DCB12046FFF722FDA862D8B100262E
:1064600040F6FF78A71B4745A8BF47463946A86AAC
:10647000FFF71FFDB2B2B9B206F6FF7630F02CFF7F
:10648000B442EFDC002002B0BDE8F081EB6A43F0DB
:106490000203EB62F6E76FF01000F4E70B787D2B58
:1064A00058D006D8102B0BD0402B09D06FF00A0023
:1064B0007047FA2B14BF6FF00A006FF0110070479D
:1064C0004B88602B46D012D8182B43D001D8102B04
:1064D000F0E7302B3ED0402B01D0202BE6D10B79BA
:1064E000042BE3D8DFE803F0163616363600B3F592
:1064F000806FF4D008D8B3F5007F2BD0D6D8802B8E
:10650000EDD0B3F5807FE9E7B3F5006F22D0B3F5A6
:10651000805FE3E74B79362B18D81A2B09D8062B66
:1065200016D0072B16D0002B14BF6FF00A000020E6
:1065300070471B3B0122DBB202FA03F3074A134206
:106540000CBF6FF00A006FF0110070476C2BB1E7C1
:10655000002070476FF01100704700BF1100000865
:10656000C0F8A02080F8A4107047B0F83031B3F51F
:10657000807F16D008D8402B15D0802B15D0202B2B
:1065800015D06FF00A007047B3F5806F11D0B3F5E6
:10659000006F10D0B3F5007FF3D13F234375002087
:1065A00070471F23FAE70723F8E70F23F6E70323D3
:1065B000F4E77F23F2E7FF23F0E710B5044600205D
:1065C00094F8943084F87101012B06D930F044FD21
:1065D0002046BDE8104000F083BBD4F8F83013B17A
:1065E000BDE81040184710BD30B5416C0B7F0C7BE7
:1065F0004D8B013BDBB2032B9ABF224AD2560822B5
:10660000182C05EB020334D8082C8CBF4FF4FE7213
:106610004FF4F8725A435211182CC2602CD8082C2F
:106620008CBF4FF4FE724FF4F87252114260182C76
:106630004FEAC202826022D8082C8CBF4FF4FE734E
:106640004FF4F873CA7A013A022A9ABF0E4880566C
:10665000082003FB00F202F5FF531F33B5FBF0F5F2
:10666000B3FBF2F32B440233C1F86821C1F86C315B
:1066700030BD4FF4B672CDE74FF4B672D5E74FF4A4
:10668000B673DFE703DA030000DA0300F0B54679FA
:106690001B2E9E4640D00CD8062E35D0072E41D05A
:1066A000002E49D101244FF4007002254FF40077E9
:1066B00008E01F2E3CD0362E3ED1012402260820B1
:1066C0003546102741B191F822C0098C63465943E1
:1066D0001CBF61440131490213356F434FEACE03B9
:1066E0003CB14FF4A57503F2491494FBF5F4302541
:1066F0006C431C443444394400FB04100028B8BFE8
:106700001F3002EB6010F0BD00787D284FF00104CF
:1067100017D000264020C8E7022601241020354665
:106720002027CFE706260024402035460746C9E744
:10673000002406261020C3E7002426460120022557
:10674000F4E70226402035468027BBE72DE9F043D9
:10675000457906781B2D99465AD00CD8062D4CD079
:10676000072D5DD0002D67D101274FF4007E022454
:106770004FF400780AE01F2D59D0362D5CD1022548
:1067800001274FF0080E2C464FF0100849B191F840
:1067900022C0098C634659431CBF8C440CF1010193
:1067A0004902A9EB0202C1EB4211133408FB141495
:1067B00094FBFEF4641B6FB14FF4BD7394FBF3F2D2
:1067C00003FB1243302B4FF4A57404FB02F4C4BF47
:1067D000303BE418002CB8BF07347D2E4FEAE404A8
:1067E00036D033D8102E3AD0402E14BF00207F2050
:1067F000A042A8BF2046BDE8F0837D2E4FF00107E0
:1068000020D102254FF0400E2C464FF08008BDE706
:10681000022501274FF0100E2C464FF02008B5E757
:10682000002706254FF0400E2C46F046AEE7002725
:1068300006254FF0100EF7E700273D464FF0010EFA
:106840000224F2E700254FF0400E90E7FA2E08D11F
:10685000C379022B05D8044A32F91300C8E77F2018
:10686000C6E70020C4E700BF08DA03002DE9F74FB0
:106870000D46D0F8D8910446904602F0BBFD032D9A
:1068800006460F4647D848460128A8BF012004EB1A
:10689000001CDCE964310191D4F8D011012D2A46A5
:1068A000A8BF0122B3EB010ED4F8D411019B63EB16
:1068B00001011EEB060347EB0101CCE96431904274
:1068C0001FBF04EB0213D3F898210132C3F89821BB
:1068D000EDB1022DD4F8D8913FD0032D3AD0B9F1C3
:1068E000030F1BD1D4F8DC0104EB0913D3E964AB2B
:1068F0001AEB000A4BF1000BC3E964AB4D451FBF17
:1069000004EB0512D2F898310133C2F89831C4E98A
:106910007467C4F8D85103B0BDE8F08FB9F1020F25
:1069200016D1B8F1000F11D1D4E916039C22301A08
:1069300067EB0303A0FB020102FB03110A22002301
:1069400036F02EF9D4F8E021801ACDE74046F9E779
:106950000020C9E7C4F8DC81D0E7B8F1000F10D1FE
:10696000D4E916039C22301A67EB0303A0FB020153
:1069700002FB03110A22002336F012F9C4F8E001E9
:10698000BCE74046FAE770B590F89460012E0546E2
:1069900014D0012380F8943002F0F8FD044650B979
:1069A000014602462846FFF761FFFF2103201EF043
:1069B000DDF8204670BD85F89460FAE70024F8E71A
:1069C0002DE9F04188B000238DF816301EF08EFAC4
:1069D0000546002840F0D3806B4C8DF81B002F2318
:1069E000A4F8583140F20263E3610DF11B030393F5
:1069F0000DF11A0302930DF11903019306AB84F80C
:106A00004801A4F84A01A4F84C01C4F80C0140263E
:106A1000009303274FF002080DF11E030DF117023A
:106A200007A904F1180084F84F71A4F8568126765E
:106A3000668302F057FE0546002840F0A080BDF8AE
:106A40001C30A4F809309DF81730A373BDF81E3030
:106A500063829DF81830E3739DF8193063749DF8D4
:106A60001A3023749DF81B30E3720923237240F619
:106A70000913A3814FF4E063A382444B84F83201ED
:106A8000C4E93F302E2384F8653140F2FF13A4F8A7
:106A900066313F4BC4F8CC303E4BC4F8D0303E4B4F
:106AA000C4F8D4303D4BC4F8C8303D4BC4F8F8307E
:106AB000A07584F8710184F8F701FF21A4F8306112
:106AC00084F80481C4E9270084F8A40038461EF045
:106AD0004CF8204602F00CFF054600284FD1204616
:106AE000FFF7E9FB04F20E201DF0D8FE0546002852
:106AF00045D107A806F00AFE8DF81E5030F0AAFC1A
:106B000084F865010DF11E0006F0C8FD9DF81E30E9
:106B1000FF2B04BF94F865318DF81E309DF81E00E0
:106B200030F084FC0DF1160006F080FD01269DF882
:106B3000160030F05DFDC4F8D861C4F8A86102F019
:106B400059FC0025C4E97401002200230E4884F892
:106B5000F461C4E97955C4E97755C4E96023FFF7C6
:106B600012FF10B9062384F8903084F80A5284F892
:106B70000C52054884F8725100F0EAF9054628469F
:106B800008B0BDE8F08100BF309A002080D0A3E4B7
:106B9000516C0000056D00008D6C0000156D00004B
:106BA0002D6D000038B500220446012100F170056A
:106BB000FFF75CFE062384F89430204602F03FFC89
:106BC000236F1BB129462046FFF738FB2846BDE856
:106BD000384000F0B3B813B504462E3006F04EFD31
:106BE0000DF1060006F052FDBDF806305B4223862B
:106BF0000020062384F82C3002B010BD10B50446E6
:106C0000084602F047FD10B9012384F8713110BD28
:106C100010B5044690F8710128B1002002F03AFD49
:106C200008B984F8710110BD02F00BBF10B504461D
:106C3000FFF7EEFF94F8A430022B06D12046002285
:106C40000321FFF78DFC012010BD0020FCE70000B0
:106C500010B5044602F08AFEE3880387237ADB0737
:106C600042BFC36A43F00803C362002380F8303098
:106C7000FFF7DCFF30B1044BBDE81040186803217A
:106C80001EF008B810BD00BF409C002038B5054676
:106C900002F06CFE0446FFF7C9FFF0B12B6813F455
:106CA000081F09D0012384F830300C4B02211868EA
:106CB000BDE838401DF0EEBF580101D50523F2E7CD
:106CC000D90401D50723EEE79A0001D50423EAE7AA
:106CD0001B044CBF02230623E5E738BD409C00207F
:106CE00010B50446FFF7A2FF40B1054B012184F81F
:106CF00030101868BDE810401DF0CCBF10BD00BFBB
:106D0000409C002008B502F031FEBDE80840FFF7C6
:106D1000E7BF000008B502F029FE034B0021186808
:106D2000BDE808401DF0B6BF409C0020024B052185
:106D300018681DF0AFBF00BF409C002038B5C46983
:106D40004CB1064D0022C2612868A047041E02DA39
:106D5000286803F0B6FB204638BD00BF449C0020E5
:106D60002DE9F041002386B00022CDE90423714EC5
:106D7000714F00230393FF238DF8073035463368A6
:106D800038685C6C4FF0FF3202A91DF08CFF0028C0
:106D9000F5D1029B062BF2D8DFE803F0042B4B65FC
:106DA000C5A8A4002046FFF777FA18B1FCF786FAC9
:106DB000C4E96001D4F8E481002201212046FFF7F4
:106DC00055FDB8F1000F08D0204602F0FFFA02216D
:106DD00000EB08022046FFF749FD0022114620463D
:106DE000FFF7BEFB012007F09AF9286803F04EFB7D
:106DF000C5E72046FFF750FA18B1FCF75FFAC4E97F
:106E00006001D4F8E811D4F8E081204602F044FB98
:106E1000012100EB08022046FFF728FD0121204652
:106E2000FFF700FB022007F07AF9286803F0F5FA73
:106E3000A5E72046FFF730FA18B1FCF73FFAC4E99E
:106E40006001002220460121FFF710FD01212046AC
:106E5000FFF7E8FA022007F062F994F8301028688A
:106E600003F0F6FA8BE72046FFF716FA18B1FCF7A5
:106E700025FAC4E960010DF1070303AA04A920461D
:106E800002F0C7FB608658BBDDE904230399616308
:106E90009DF8071084F84210C4E90823204602F048
:106EA000BCFA2A68238FD268804604F5887104F101
:106EB0001800FFF7EBFB00EB080220460121FFF76B
:106EC000D5FC218F2046FFF7AEFA00212046FFF7C0
:106ED000A9FA022007F023F9286803F083FA4EE7A5
:106EE0000022EAE72868FDF789FA48E72B685C6C1E
:106EF00094F89430012B04F1700803D04046FFF75A
:106F00001DFF3CE794F8913013B12046FFF7F0F9EC
:106F100094F89030062BF1D92046FFF7B1F90028FC
:106F20003FF42DAFEAE7054B18681DF018FF06B0D7
:106F3000BDE8F081449C0020409C0020489C00203B
:106F4000024B014618681DF0A5BE00BF409C002002
:106F50007FB500233C49ADF80E300546042003F010
:106F600097FF044620B96FF01004204604B070BDAE
:106F70004564FFF739FB236C71225A60284602F002
:106F8000FFFC002850D02AA3D3E90023C4E90E2334
:106F90000DF10E0006F018FB236C1A69BDF80E30D7
:106FA000DB4303F4087353614FF48051274B236094
:106FB0000D22C4E9041247F6E012C4E90623204674
:106FC000FFF709FE236C1CA1D1E900011B69C3E98D
:106FD00006012A7A5A7004221A702B7B1C4D2362F8
:106FE00020462C6003F0AAFF0446C8B91DF032FE0B
:106FF000184E194A30604FF4006300931748184B3D
:10700000019421461DF06AFE164B18600028ACD191
:1070100030681DF033FE286803F0DAFF6FF01004CB
:10702000286803F065FFA0E705A3D3E90023ADE7D7
:10703000346CA8B54403000057EB1CE4D62C55D69D
:10704000346CA8B504000000C0DA03008009EE002B
:10705000449C0020409C00200EDA0300616D00007B
:107060004C9C0020489C002038B50F4C2368D3B1BD
:107070005B6C0E4DBFF35B8F042193F87231BFF34D
:107080005B8F28681DF006FE094B18681DF05BFE3B
:1070900028681DF0F3FD206803F09AFF2068BDE822
:1070A000384003F025BF38BD449C0020409C0020A0
:1070B000489C00201F2819D00ED8072819D006D8C0
:1070C000012818D0032814BF0020202070470F2863
:1070D00014BF0020802070477F280ED0FF280FD0DB
:1070E0003F2814BF00204FF4007070474FF48070A9
:1070F000704740207047102070474FF48060704701
:107100004FF4006070470000402803D00AD81028D0
:1071100018BF0020042A9ABF074B9B5C0023194428
:10712000484370477D2804D0FA2814BF002051201E
:10713000F0E75120EEE700BFB6DA03006FF0110070
:107140007047000002794188013AD2B2032A9CBFFD
:10715000094B9B56027888BF0823102A0B4408D09D
:10716000402A14BF4FF4B6704FF4FE7058434011DC
:1071700070474FF4F870F9E7BBDA030030B50398B5
:10718000101A049A63EB0203002403F0800503F055
:10719000FF0154EA050318BF61F0FF0130BD0B6821
:1071A0001BBAC3604B681BBA83608B681BBA436011
:1071B000CB681BBA0360704700207047406C02F038
:1071C00031BC07B50DF1070006F024FC9DF807005F
:1071D00003B05DF804FB00002DE9F0410D468EB0D0
:1071E000002900F0B9800C2A40F0B8800B78466C7A
:1071F000012B05D0022B00F084806FF00A0462E0BE
:10720000584F4C793A78A242F7D04FF0000E4FF029
:10721000FD328DF8023007238DF800E001928DF8E1
:10722000033006F1C808002C57D044460FCC0DF1AE
:10723000080CACE80F000FCCACE80F0094E80F008E
:107240008CE80F002B7986F8663196F89430CDF8EB
:1072500008E0012B02D83046FFF712F8A87930F089
:107260002DFAA0BB96F86601694606F0C7FB0446F6
:1072700030BB9DF90030002B0ADA01A806F02EFA87
:107280000DF1020006F032FA0DF1030006F036FAB5
:107290009DF8023086F86131304601F080FD0446E9
:1072A000C0B901982FF0BCFD9DF8030030F0F2F951
:1072B00002A82FF033FF30F0E1F820462FF056FE01
:1072C0000CB96B793B7020B20EB0BDE8F0816FF065
:1072D0000B04F5E76FF00204F2E730F0DFF8404608
:1072E0002FF01CFF96F89430012B03D93046FFF79E
:1072F0004AFBE5E7307AAB798342E1D030F0DEF942
:10730000DEE796F89430012B11D83046FEF7B8FF2F
:10731000012700202FF046FD30B9287A30F0CEF951
:10732000044630B101236B726FF00B0404E00027B8
:10733000EFE730F0D9F868603FB13046FFF723FB44
:10734000231E18BF01236B72BDE7307A2B7A83426C
:10735000F6D030F0B3F9F3E70846B5E76FF00A006E
:10736000B2E700BF4CA4002013B501A80C4602F000
:1073700003FB50B9019A6423D1B21212594353430B
:1073800003EB112303F30F03238002B010BD0000B1
:107390002DE9F84F446C0D46002960D0D4F8D8117F
:1073A000012903DC00222046FFF760FAD4F8B0017F
:1073B000DFF8B480D4F8B4312A4AA0FB080108FBF6
:1073C0000311002335F03CFC0646C717D4E97003CF
:1073D000A0FB080108FB0311224A002335F030FC12
:1073E000321847EBE07380464FEAE079D4E9681041
:1073F000B1EB020A60EB030B4FF47A72D4E964013B
:10740000002335F01DFCD4F89831A860EB604FF4F0
:107410007A7200235046594635F012FCD4F8A83150
:1074200028616B614FF47A7200233046394635F09B
:1074300007FCD4F8B831A861EB614FF47A720023ED
:107440004046494635F0FCFBD4F8C8316B62002257
:107450000023C5E90A2328620020BDE8F88F6FF0F9
:107460000A00FAE78009EE0040420F0070B5466C52
:10747000054605F041FE0446A8B93046FEF71BFF5D
:1074800001213046FEF707FF2B6C1B694FF4087291
:107490005A612846FFF79FFB96F865012FF0C6FF5B
:1074A000204630F0A5F8204670BD0846114605F08C
:1074B00031BD084611461A4605F0F6BDF7B5064639
:1074C0000C461046776C1A46002971D001462046BA
:1074D00005F090FD0546A0B93748214619F0E4FAB9
:1074E00090B90DF1060006F0D9F89DF80630FF2B93
:1074F00004BF97F865318DF806309DF806002FF02F
:1075000095FF284603B0F0BD2C480A22214619F009
:1075100005FD28B129480A22211D19F0FFFC18B9E0
:107520003846FEF7C8FEECE72548214619F0BCFABC
:1075300078B9336C0DF106001C6906F045F8BDF80A
:107540000630DB4303F408736361304603F02FFE1B
:10755000D7E71C481322214619F0E0FC18B9304641
:10756000FFF739FBCDE71848214619F09DFA40B9DD
:107570000DF1060006F05AF89DF8060030F038F8D4
:10758000BFE712480922214619F0C8FC18B90123A7
:1075900087F8F431B5E70E48214619F085FA00283E
:1075A000AFD107F5C47006F03BF86FF01805A8E7F7
:1075B0006FF00A05A5E700BFFED4030018DA030048
:1075C00023DA030037DA03004BDA0300D2E20300C8
:1075D00061DA030005F0FABC05F0E8BC08B5436CBD
:1075E0000029B3F8562114BF00200220824209D09E
:1075F00093F89420A3F85601042A05D81A6F42F094
:1076000008021A67002008BDB3F858112FF018FEC1
:10761000F8E737B5D307406C44BF4B89A0F8523127
:10762000950748BFD1E90045019248BFC0E9004530
:10763000540744BF0B89A0F85431130707D5097BC1
:10764000B0F8583169B143F44073A0F8583190F85C
:107650009430042B08D8036F1A430267002003B04C
:1076600030BD23F44073F0E701A9FEF7E7FDF5E72D
:1076700070B5446C91F8223094F832219A4218BFC8
:1076800001220D461CBF84F8F42184F8323183B105
:10769000B4F830610B8C9E420BD0A4F830312046F8
:1076A000FEF763FF10B1A4F8306170BD012384F8C8
:1076B000F43105F1100104F58870FFF770FD04F551
:1076C00090702946FFF76BFD0020EEE770B5446C23
:1076D000054620460E4602F03DF8031E01DA18B2B8
:1076E00070BD08D03268A2617268E261012B02D0DD
:1076F0002846FEF779FF237E402B09D9638B202B88
:1077000006D1237F012B03D184F8F6310020E7E76F
:10771000002084F8F601E3E704292DE9F843D0F8C6
:10772000448006461746994634D16FF40874D44015
:1077300014F001042ED1093B172B2BD898F80830F0
:10774000934207D198F80C304B4504D100252846C8
:10775000BDE8F88301244A463946404601F06AFFF5
:1077600005460028F3D1336C1B6904221A705F7040
:10777000336A994504D0C6F820903046FEF734FFAE
:1077800098F89430012BE1D9002CDFD0404601F06D
:1077900056FEDCE76FF00A05D9E7000070B5466CCD
:1077A000BFF35B8F96F87231BFF35B8F0D46ABB1C1
:1077B000304601F00BFE286096F89430052B044605
:1077C0000AD8B6F80E02074B074AA0FB03010023B4
:1077D00035F036FA20442860002001E06FF0050003
:1077E00070BD00BF8009EE0040420F0010B5044696
:1077F00001F0ECFD236EC01A044B984204D92046D8
:10780000BDE8104001F01BBE002010BDC0CD170028
:1078100010B5044621B92046BDE81040FFF7B3B8C3
:10782000FFF7ECF90028F6D010BD08B502F05EFEB7
:10783000002008BD13B5446C0192032006F06EFCD5
:107840000199204601F0FCFA0446032006F067FC8B
:10785000204602B010BD2DE9F743446C1646994608
:1078600000220023CDE9002394F8303005460F466E
